{
  "address": "0x2A23b4a5264043be36191c988828a6E16eD762cC",
  "abi": [
    {
      "inputs": [
        {
          "internalType": "address",
          "name": "initialOwner",
          "type": "address"
        }
      ],
      "stateMutability": "nonpayable",
      "type": "constructor"
    },
    {
      "inputs": [],
      "name": "ECDSAInvalidSignature",
      "type": "error"
    },
    {
      "inputs": [
        {
          "internalType": "uint256",
          "name": "length",
          "type": "uint256"
        }
      ],
      "name": "ECDSAInvalidSignatureLength",
      "type": "error"
    },
    {
      "inputs": [
        {
          "internalType": "bytes32",
          "name": "s",
          "type": "bytes32"
        }
      ],
      "name": "ECDSAInvalidSignatureS",
      "type": "error"
    },
    {
      "inputs": [
        {
          "internalType": "address",
          "name": "spender",
          "type": "address"
        },
        {
          "internalType": "uint256",
          "name": "value",
          "type": "uint256"
        }
      ],
      "name": "ERC1363ApproveFailed",
      "type": "error"
    },
    {
      "inputs": [
        {
          "internalType": "address",
          "name": "receiver",
          "type": "address"
        }
      ],
      "name": "ERC1363InvalidReceiver",
      "type": "error"
    },
    {
      "inputs": [
        {
          "internalType": "address",
          "name": "spender",
          "type": "address"
        }
      ],
      "name": "ERC1363InvalidSpender",
      "type": "error"
    },
    {
      "inputs": [
        {
          "internalType": "address",
          "name": "receiver",
          "type": "address"
        },
        {
          "internalType": "uint256",
          "name": "value",
          "type": "uint256"
        }
      ],
      "name": "ERC1363TransferFailed",
      "type": "error"
    },
    {
      "inputs": [
        {
          "internalType": "address",
          "name": "sender",
          "type": "address"
        },
        {
          "internalType": "address",
          "name": "receiver",
          "type": "address"
        },
        {
          "internalType": "uint256",
          "name": "value",
          "type": "uint256"
        }
      ],
      "name": "ERC1363TransferFromFailed",
      "type": "error"
    },
    {
      "inputs": [
        {
          "internalType": "address",
          "name": "spender",
          "type": "address"
        },
        {
          "internalType": "uint256",
          "name": "allowance",
          "type": "uint256"
        },
        {
          "internalType": "uint256",
          "name": "needed",
          "type": "uint256"
        }
      ],
      "name": "ERC20InsufficientAllowance",
      "type": "error"
    },
    {
      "inputs": [
        {
          "internalType": "address",
          "name": "sender",
          "type": "address"
        },
        {
          "internalType": "uint256",
          "name": "balance",
          "type": "uint256"
        },
        {
          "internalType": "uint256",
          "name": "needed",
          "type": "uint256"
        }
      ],
      "name": "ERC20InsufficientBalance",
      "type": "error"
    },
    {
      "inputs": [
        {
          "internalType": "address",
          "name": "approver",
          "type": "address"
        }
      ],
      "name": "ERC20InvalidApprover",
      "type": "error"
    },
    {
      "inputs": [
        {
          "internalType": "address",
          "name": "receiver",
          "type": "address"
        }
      ],
      "name": "ERC20InvalidReceiver",
      "type": "error"
    },
    {
      "inputs": [
        {
          "internalType": "address",
          "name": "sender",
          "type": "address"
        }
      ],
      "name": "ERC20InvalidSender",
      "type": "error"
    },
    {
      "inputs": [
        {
          "internalType": "address",
          "name": "spender",
          "type": "address"
        }
      ],
      "name": "ERC20InvalidSpender",
      "type": "error"
    },
    {
      "inputs": [
        {
          "internalType": "uint256",
          "name": "deadline",
          "type": "uint256"
        }
      ],
      "name": "ERC2612ExpiredSignature",
      "type": "error"
    },
    {
      "inputs": [
        {
          "internalType": "address",
          "name": "signer",
          "type": "address"
        },
        {
          "internalType": "address",
          "name": "owner",
          "type": "address"
        }
      ],
      "name": "ERC2612InvalidSigner",
      "type": "error"
    },
    {
      "inputs": [
        {
          "internalType": "address",
          "name": "account",
          "type": "address"
        },
        {
          "internalType": "uint256",
          "name": "currentNonce",
          "type": "uint256"
        }
      ],
      "name": "InvalidAccountNonce",
      "type": "error"
    },
    {
      "inputs": [],
      "name": "InvalidShortString",
      "type": "error"
    },
    {
      "inputs": [
        {
          "internalType": "address",
          "name": "owner",
          "type": "address"
        }
      ],
      "name": "OwnableInvalidOwner",
      "type": "error"
    },
    {
      "inputs": [
        {
          "internalType": "address",
          "name": "account",
          "type": "address"
        }
      ],
      "name": "OwnableUnauthorizedAccount",
      "type": "error"
    },
    {
      "inputs": [],
      "name": "ReentrancyGuardReentrantCall",
      "type": "error"
    },
    {
      "inputs": [
        {
          "internalType": "string",
          "name": "str",
          "type": "string"
        }
      ],
      "name": "StringTooLong",
      "type": "error"
    },
    {
      "anonymous": false,
      "inputs": [
        {
          "indexed": true,
          "internalType": "address",
          "name": "owner",
          "type": "address"
        },
        {
          "indexed": true,
          "internalType": "address",
          "name": "spender",
          "type": "address"
        },
        {
          "indexed": false,
          "internalType": "uint256",
          "name": "value",
          "type": "uint256"
        }
      ],
      "name": "Approval",
      "type": "event"
    },
    {
      "anonymous": false,
      "inputs": [
        {
          "indexed": true,
          "internalType": "uint256",
          "name": "auctionId",
          "type": "uint256"
        },
        {
          "indexed": true,
          "internalType": "address",
          "name": "seller",
          "type": "address"
        },
        {
          "indexed": true,
          "internalType": "address",
          "name": "nftContract",
          "type": "address"
        },
        {
          "indexed": false,
          "internalType": "uint256",
          "name": "tokenId",
          "type": "uint256"
        },
        {
          "indexed": false,
          "internalType": "uint256",
          "name": "startingPrice",
          "type": "uint256"
        },
        {
          "indexed": false,
          "internalType": "uint256",
          "name": "startTime",
          "type": "uint256"
        },
        {
          "indexed": false,
          "internalType": "uint256",
          "name": "endTime",
          "type": "uint256"
        }
      ],
      "name": "AuctionCreated",
      "type": "event"
    },
    {
      "anonymous": false,
      "inputs": [
        {
          "indexed": false,
          "internalType": "uint256",
          "name": "auctionId",
          "type": "uint256"
        },
        {
          "indexed": true,
          "internalType": "address",
          "name": "winner",
          "type": "address"
        },
        {
          "indexed": false,
          "internalType": "uint256",
          "name": "winningBid",
          "type": "uint256"
        }
      ],
      "name": "AuctionEnded",
      "type": "event"
    },
    {
      "anonymous": false,
      "inputs": [
        {
          "indexed": false,
          "internalType": "uint256",
          "name": "auctionId",
          "type": "uint256"
        },
        {
          "indexed": true,
          "internalType": "address",
          "name": "bidder",
          "type": "address"
        },
        {
          "indexed": false,
          "internalType": "uint256",
          "name": "amount",
          "type": "uint256"
        }
      ],
      "name": "BidPlaced",
      "type": "event"
    },
    {
      "anonymous": false,
      "inputs": [],
      "name": "EIP712DomainChanged",
      "type": "event"
    },
    {
      "anonymous": false,
      "inputs": [
        {
          "indexed": true,
          "internalType": "address",
          "name": "previousOwner",
          "type": "address"
        },
        {
          "indexed": true,
          "internalType": "address",
          "name": "newOwner",
          "type": "address"
        }
      ],
      "name": "OwnershipTransferred",
      "type": "event"
    },
    {
      "anonymous": false,
      "inputs": [
        {
          "indexed": true,
          "internalType": "address",
          "name": "from",
          "type": "address"
        },
        {
          "indexed": true,
          "internalType": "address",
          "name": "to",
          "type": "address"
        },
        {
          "indexed": false,
          "internalType": "uint256",
          "name": "value",
          "type": "uint256"
        }
      ],
      "name": "Transfer",
      "type": "event"
    },
    {
      "inputs": [],
      "name": "DOMAIN_SEPARATOR",
      "outputs": [
        {
          "internalType": "bytes32",
          "name": "",
          "type": "bytes32"
        }
      ],
      "stateMutability": "view",
      "type": "function"
    },
    {
      "inputs": [
        {
          "internalType": "address",
          "name": "owner",
          "type": "address"
        },
        {
          "internalType": "address",
          "name": "spender",
          "type": "address"
        }
      ],
      "name": "allowance",
      "outputs": [
        {
          "internalType": "uint256",
          "name": "",
          "type": "uint256"
        }
      ],
      "stateMutability": "view",
      "type": "function"
    },
    {
      "inputs": [
        {
          "internalType": "address",
          "name": "spender",
          "type": "address"
        },
        {
          "internalType": "uint256",
          "name": "value",
          "type": "uint256"
        }
      ],
      "name": "approve",
      "outputs": [
        {
          "internalType": "bool",
          "name": "",
          "type": "bool"
        }
      ],
      "stateMutability": "nonpayable",
      "type": "function"
    },
    {
      "inputs": [
        {
          "internalType": "address",
          "name": "spender",
          "type": "address"
        },
        {
          "internalType": "uint256",
          "name": "value",
          "type": "uint256"
        }
      ],
      "name": "approveAndCall",
      "outputs": [
        {
          "internalType": "bool",
          "name": "",
          "type": "bool"
        }
      ],
      "stateMutability": "nonpayable",
      "type": "function"
    },
    {
      "inputs": [
        {
          "internalType": "address",
          "name": "spender",
          "type": "address"
        },
        {
          "internalType": "uint256",
          "name": "value",
          "type": "uint256"
        },
        {
          "internalType": "bytes",
          "name": "data",
          "type": "bytes"
        }
      ],
      "name": "approveAndCall",
      "outputs": [
        {
          "internalType": "bool",
          "name": "",
          "type": "bool"
        }
      ],
      "stateMutability": "nonpayable",
      "type": "function"
    },
    {
      "inputs": [],
      "name": "auctionCount",
      "outputs": [
        {
          "internalType": "uint256",
          "name": "",
          "type": "uint256"
        }
      ],
      "stateMutability": "view",
      "type": "function"
    },
    {
      "inputs": [
        {
          "internalType": "uint256",
          "name": "",
          "type": "uint256"
        }
      ],
      "name": "auctions",
      "outputs": [
        {
          "internalType": "uint256",
          "name": "auctionId",
          "type": "uint256"
        },
        {
          "internalType": "address",
          "name": "seller",
          "type": "address"
        },
        {
          "internalType": "address",
          "name": "highestBidder",
          "type": "address"
        },
        {
          "internalType": "uint256",
          "name": "highestBid",
          "type": "uint256"
        },
        {
          "internalType": "uint256",
          "name": "startTime",
          "type": "uint256"
        },
        {
          "internalType": "uint256",
          "name": "endTime",
          "type": "uint256"
        },
        {
          "internalType": "uint256",
          "name": "startingPrice",
          "type": "uint256"
        },
        {
          "internalType": "contract IERC721",
          "name": "nftContract",
          "type": "address"
        },
        {
          "internalType": "uint256",
          "name": "tokenId",
          "type": "uint256"
        },
        {
          "internalType": "bool",
          "name": "ended",
          "type": "bool"
        }
      ],
      "stateMutability": "view",
      "type": "function"
    },
    {
      "inputs": [
        {
          "internalType": "address",
          "name": "account",
          "type": "address"
        }
      ],
      "name": "balanceOf",
      "outputs": [
        {
          "internalType": "uint256",
          "name": "",
          "type": "uint256"
        }
      ],
      "stateMutability": "view",
      "type": "function"
    },
    {
      "inputs": [],
      "name": "cleanupExpiredAuctions",
      "outputs": [],
      "stateMutability": "nonpayable",
      "type": "function"
    },
    {
      "inputs": [
        {
          "internalType": "contract IERC721",
          "name": "_nftContract",
          "type": "address"
        },
        {
          "internalType": "uint256",
          "name": "_tokenId",
          "type": "uint256"
        },
        {
          "internalType": "uint256",
          "name": "_startingPriceWei",
          "type": "uint256"
        },
        {
          "internalType": "uint256",
          "name": "_durationSeconds",
          "type": "uint256"
        }
      ],
      "name": "createAuction",
      "outputs": [],
      "stateMutability": "nonpayable",
      "type": "function"
    },
    {
      "inputs": [],
      "name": "decimals",
      "outputs": [
        {
          "internalType": "uint8",
          "name": "",
          "type": "uint8"
        }
      ],
      "stateMutability": "view",
      "type": "function"
    },
    {
      "inputs": [],
      "name": "eip712Domain",
      "outputs": [
        {
          "internalType": "bytes1",
          "name": "fields",
          "type": "bytes1"
        },
        {
          "internalType": "string",
          "name": "name",
          "type": "string"
        },
        {
          "internalType": "string",
          "name": "version",
          "type": "string"
        },
        {
          "internalType": "uint256",
          "name": "chainId",
          "type": "uint256"
        },
        {
          "internalType": "address",
          "name": "verifyingContract",
          "type": "address"
        },
        {
          "internalType": "bytes32",
          "name": "salt",
          "type": "bytes32"
        },
        {
          "internalType": "uint256[]",
          "name": "extensions",
          "type": "uint256[]"
        }
      ],
      "stateMutability": "view",
      "type": "function"
    },
    {
      "inputs": [
        {
          "internalType": "uint256",
          "name": "_auctionId",
          "type": "uint256"
        }
      ],
      "name": "endAuction",
      "outputs": [],
      "stateMutability": "nonpayable",
      "type": "function"
    },
    {
      "inputs": [
        {
          "internalType": "uint256",
          "name": "",
          "type": "uint256"
        }
      ],
      "name": "expiredAuctionIds",
      "outputs": [
        {
          "internalType": "uint256",
          "name": "",
          "type": "uint256"
        }
      ],
      "stateMutability": "view",
      "type": "function"
    },
    {
      "inputs": [
        {
          "internalType": "uint256",
          "name": "",
          "type": "uint256"
        }
      ],
      "name": "expiredAuctionIndex",
      "outputs": [
        {
          "internalType": "uint256",
          "name": "",
          "type": "uint256"
        }
      ],
      "stateMutability": "view",
      "type": "function"
    },
    {
      "inputs": [
        {
          "internalType": "uint256",
          "name": "_auctionId",
          "type": "uint256"
        }
      ],
      "name": "getAuction",
      "outputs": [
        {
          "components": [
            {
              "internalType": "uint256",
              "name": "auctionId",
              "type": "uint256"
            },
            {
              "internalType": "address",
              "name": "seller",
              "type": "address"
            },
            {
              "internalType": "address",
              "name": "highestBidder",
              "type": "address"
            },
            {
              "internalType": "uint256",
              "name": "highestBid",
              "type": "uint256"
            },
            {
              "internalType": "uint256",
              "name": "startTime",
              "type": "uint256"
            },
            {
              "internalType": "uint256",
              "name": "endTime",
              "type": "uint256"
            },
            {
              "internalType": "uint256",
              "name": "startingPrice",
              "type": "uint256"
            },
            {
              "internalType": "contract IERC721",
              "name": "nftContract",
              "type": "address"
            },
            {
              "internalType": "uint256",
              "name": "tokenId",
              "type": "uint256"
            },
            {
              "internalType": "bool",
              "name": "ended",
              "type": "bool"
            }
          ],
          "internalType": "struct NftAuctions.Auction",
          "name": "",
          "type": "tuple"
        }
      ],
      "stateMutability": "view",
      "type": "function"
    },
    {
      "inputs": [],
      "name": "getCurrentTime",
      "outputs": [
        {
          "internalType": "uint256",
          "name": "",
          "type": "uint256"
        }
      ],
      "stateMutability": "view",
      "type": "function"
    },
    {
      "inputs": [],
      "name": "getExpiredAuctions",
      "outputs": [
        {
          "components": [
            {
              "internalType": "uint256",
              "name": "auctionId",
              "type": "uint256"
            },
            {
              "internalType": "address",
              "name": "seller",
              "type": "address"
            },
            {
              "internalType": "address",
              "name": "highestBidder",
              "type": "address"
            },
            {
              "internalType": "uint256",
              "name": "highestBid",
              "type": "uint256"
            },
            {
              "internalType": "uint256",
              "name": "startTime",
              "type": "uint256"
            },
            {
              "internalType": "uint256",
              "name": "endTime",
              "type": "uint256"
            },
            {
              "internalType": "uint256",
              "name": "startingPrice",
              "type": "uint256"
            },
            {
              "internalType": "contract IERC721",
              "name": "nftContract",
              "type": "address"
            },
            {
              "internalType": "uint256",
              "name": "tokenId",
              "type": "uint256"
            },
            {
              "internalType": "bool",
              "name": "ended",
              "type": "bool"
            }
          ],
          "internalType": "struct NftAuctions.Auction[]",
          "name": "",
          "type": "tuple[]"
        }
      ],
      "stateMutability": "view",
      "type": "function"
    },
    {
      "inputs": [],
      "name": "getOngoingAuctions",
      "outputs": [
        {
          "components": [
            {
              "internalType": "uint256",
              "name": "auctionId",
              "type": "uint256"
            },
            {
              "internalType": "address",
              "name": "seller",
              "type": "address"
            },
            {
              "internalType": "address",
              "name": "highestBidder",
              "type": "address"
            },
            {
              "internalType": "uint256",
              "name": "highestBid",
              "type": "uint256"
            },
            {
              "internalType": "uint256",
              "name": "startTime",
              "type": "uint256"
            },
            {
              "internalType": "uint256",
              "name": "endTime",
              "type": "uint256"
            },
            {
              "internalType": "uint256",
              "name": "startingPrice",
              "type": "uint256"
            },
            {
              "internalType": "contract IERC721",
              "name": "nftContract",
              "type": "address"
            },
            {
              "internalType": "uint256",
              "name": "tokenId",
              "type": "uint256"
            },
            {
              "internalType": "bool",
              "name": "ended",
              "type": "bool"
            }
          ],
          "internalType": "struct NftAuctions.Auction[]",
          "name": "",
          "type": "tuple[]"
        }
      ],
      "stateMutability": "view",
      "type": "function"
    },
    {
      "inputs": [
        {
          "internalType": "uint256",
          "name": "_auctionId",
          "type": "uint256"
        }
      ],
      "name": "isAuctionExpired",
      "outputs": [
        {
          "internalType": "bool",
          "name": "",
          "type": "bool"
        }
      ],
      "stateMutability": "view",
      "type": "function"
    },
    {
      "inputs": [],
      "name": "name",
      "outputs": [
        {
          "internalType": "string",
          "name": "",
          "type": "string"
        }
      ],
      "stateMutability": "view",
      "type": "function"
    },
    {
      "inputs": [
        {
          "internalType": "address",
          "name": "owner",
          "type": "address"
        }
      ],
      "name": "nonces",
      "outputs": [
        {
          "internalType": "uint256",
          "name": "",
          "type": "uint256"
        }
      ],
      "stateMutability": "view",
      "type": "function"
    },
    {
      "inputs": [
        {
          "internalType": "uint256",
          "name": "",
          "type": "uint256"
        }
      ],
      "name": "ongoingAuctionIds",
      "outputs": [
        {
          "internalType": "uint256",
          "name": "",
          "type": "uint256"
        }
      ],
      "stateMutability": "view",
      "type": "function"
    },
    {
      "inputs": [
        {
          "internalType": "uint256",
          "name": "",
          "type": "uint256"
        }
      ],
      "name": "ongoingAuctionIndex",
      "outputs": [
        {
          "internalType": "uint256",
          "name": "",
          "type": "uint256"
        }
      ],
      "stateMutability": "view",
      "type": "function"
    },
    {
      "inputs": [],
      "name": "owner",
      "outputs": [
        {
          "internalType": "address",
          "name": "",
          "type": "address"
        }
      ],
      "stateMutability": "view",
      "type": "function"
    },
    {
      "inputs": [
        {
          "internalType": "address",
          "name": "owner",
          "type": "address"
        },
        {
          "internalType": "address",
          "name": "spender",
          "type": "address"
        },
        {
          "internalType": "uint256",
          "name": "value",
          "type": "uint256"
        },
        {
          "internalType": "uint256",
          "name": "deadline",
          "type": "uint256"
        },
        {
          "internalType": "uint8",
          "name": "v",
          "type": "uint8"
        },
        {
          "internalType": "bytes32",
          "name": "r",
          "type": "bytes32"
        },
        {
          "internalType": "bytes32",
          "name": "s",
          "type": "bytes32"
        }
      ],
      "name": "permit",
      "outputs": [],
      "stateMutability": "nonpayable",
      "type": "function"
    },
    {
      "inputs": [
        {
          "internalType": "uint256",
          "name": "_auctionId",
          "type": "uint256"
        }
      ],
      "name": "placeBid",
      "outputs": [],
      "stateMutability": "payable",
      "type": "function"
    },
    {
      "inputs": [],
      "name": "renounceOwnership",
      "outputs": [],
      "stateMutability": "nonpayable",
      "type": "function"
    },
    {
      "inputs": [
        {
          "internalType": "bytes4",
          "name": "interfaceId",
          "type": "bytes4"
        }
      ],
      "name": "supportsInterface",
      "outputs": [
        {
          "internalType": "bool",
          "name": "",
          "type": "bool"
        }
      ],
      "stateMutability": "view",
      "type": "function"
    },
    {
      "inputs": [],
      "name": "symbol",
      "outputs": [
        {
          "internalType": "string",
          "name": "",
          "type": "string"
        }
      ],
      "stateMutability": "view",
      "type": "function"
    },
    {
      "inputs": [],
      "name": "totalSupply",
      "outputs": [
        {
          "internalType": "uint256",
          "name": "",
          "type": "uint256"
        }
      ],
      "stateMutability": "view",
      "type": "function"
    },
    {
      "inputs": [
        {
          "internalType": "address",
          "name": "to",
          "type": "address"
        },
        {
          "internalType": "uint256",
          "name": "value",
          "type": "uint256"
        }
      ],
      "name": "transfer",
      "outputs": [
        {
          "internalType": "bool",
          "name": "",
          "type": "bool"
        }
      ],
      "stateMutability": "nonpayable",
      "type": "function"
    },
    {
      "inputs": [
        {
          "internalType": "address",
          "name": "to",
          "type": "address"
        },
        {
          "internalType": "uint256",
          "name": "value",
          "type": "uint256"
        }
      ],
      "name": "transferAndCall",
      "outputs": [
        {
          "internalType": "bool",
          "name": "",
          "type": "bool"
        }
      ],
      "stateMutability": "nonpayable",
      "type": "function"
    },
    {
      "inputs": [
        {
          "internalType": "address",
          "name": "to",
          "type": "address"
        },
        {
          "internalType": "uint256",
          "name": "value",
          "type": "uint256"
        },
        {
          "internalType": "bytes",
          "name": "data",
          "type": "bytes"
        }
      ],
      "name": "transferAndCall",
      "outputs": [
        {
          "internalType": "bool",
          "name": "",
          "type": "bool"
        }
      ],
      "stateMutability": "nonpayable",
      "type": "function"
    },
    {
      "inputs": [
        {
          "internalType": "address",
          "name": "from",
          "type": "address"
        },
        {
          "internalType": "address",
          "name": "to",
          "type": "address"
        },
        {
          "internalType": "uint256",
          "name": "value",
          "type": "uint256"
        }
      ],
      "name": "transferFrom",
      "outputs": [
        {
          "internalType": "bool",
          "name": "",
          "type": "bool"
        }
      ],
      "stateMutability": "nonpayable",
      "type": "function"
    },
    {
      "inputs": [
        {
          "internalType": "address",
          "name": "from",
          "type": "address"
        },
        {
          "internalType": "address",
          "name": "to",
          "type": "address"
        },
        {
          "internalType": "uint256",
          "name": "value",
          "type": "uint256"
        },
        {
          "internalType": "bytes",
          "name": "data",
          "type": "bytes"
        }
      ],
      "name": "transferFromAndCall",
      "outputs": [
        {
          "internalType": "bool",
          "name": "",
          "type": "bool"
        }
      ],
      "stateMutability": "nonpayable",
      "type": "function"
    },
    {
      "inputs": [
        {
          "internalType": "address",
          "name": "from",
          "type": "address"
        },
        {
          "internalType": "address",
          "name": "to",
          "type": "address"
        },
        {
          "internalType": "uint256",
          "name": "value",
          "type": "uint256"
        }
      ],
      "name": "transferFromAndCall",
      "outputs": [
        {
          "internalType": "bool",
          "name": "",
          "type": "bool"
        }
      ],
      "stateMutability": "nonpayable",
      "type": "function"
    },
    {
      "inputs": [
        {
          "internalType": "address",
          "name": "newOwner",
          "type": "address"
        }
      ],
      "name": "transferOwnership",
      "outputs": [],
      "stateMutability": "nonpayable",
      "type": "function"
    },
    {
      "stateMutability": "payable",
      "type": "receive"
    }
  ],
  "transactionHash": "0x8887f3d38115fbd59c26dc46855951c285e5ec5d980437da4e235b676cd171c6",
  "args": [
    "0xDBfb6265396E82c6Af1E547401C4CB81468cf435"
  ],
  "numDeployments": 1,
  "solcInputHash": "668b7651f99474567db64e6e69f43ed9",
  "bytecode": "0x6101606040523480156200001257600080fd5b5060405162003406380380620034068339810160408190526200003591620002a7565b806040518060400160405280600b81526020016a4e667441756374696f6e7360a81b81525080604051806040016040528060018152602001603160f81b8152506040518060400160405280600b81526020016a4e667441756374696f6e7360a81b815250604051806040016040528060048152602001634e46544160e01b8152508160039081620000c791906200037e565b506004620000d682826200037e565b50620000e891508390506005620001d9565b61012052620000f9816006620001d9565b61014052815160208084019190912060e052815190820120610100524660a0526200018760e05161010051604080517f8b73c3c69bb8fe3d512ecc4cf759cc79239f7b179b0ffacaa9a75d522b39400f60208201529081019290925260608201524660808201523060a082015260009060c00160405160208183030381529060405280519060200120905090565b60805250503060c052506001600160a01b038116620001c157604051631e4fbdf760e01b8152600060048201526024015b60405180910390fd5b620001cc8162000212565b50506001600955620004bf565b6000602083511015620001f957620001f18362000264565b90506200020c565b816200020684826200037e565b5060ff90505b92915050565b600880546001600160a01b038381166001600160a01b0319831681179093556040519116919082907f8be0079c531659141344cd1fd0a4f28419497f9722a3daafe3b4186f6b6457e090600090a35050565b600080829050601f8151111562000292578260405163305a27a960e01b8152600401620001b891906200044a565b80516200029f826200049a565b179392505050565b600060208284031215620002ba57600080fd5b81516001600160a01b0381168114620002d257600080fd5b9392505050565b634e487b7160e01b600052604160045260246000fd5b600181811c908216806200030457607f821691505b6020821081036200032557634e487b7160e01b600052602260045260246000fd5b50919050565b601f8211156200037957600081815260208120601f850160051c81016020861015620003545750805b601f850160051c820191505b81811015620003755782815560010162000360565b5050505b505050565b81516001600160401b038111156200039a576200039a620002d9565b620003b281620003ab8454620002ef565b846200032b565b602080601f831160018114620003ea5760008415620003d15750858301515b600019600386901b1c1916600185901b17855562000375565b600085815260208120601f198616915b828110156200041b57888601518255948401946001909101908401620003fa565b50858210156200043a5787850151600019600388901b60f8161c191681555b5050505050600190811b01905550565b600060208083528351808285015260005b8181101562000479578581018301518582016040015282016200045b565b506000604082860101526040601f19601f8301168501019250505092915050565b80516020808301519190811015620003255760001960209190910360031b1b16919050565b60805160a05160c05160e051610100516101205161014051612eec6200051a600039600061213a0152600061210d01526000611ebb01526000611e9301526000611dee01526000611e1801526000611e420152612eec6000f3fe6080604052600436106102295760003560e01c8063715018a611610123578063a9059cbb116100ab578063d70768a21161006f578063d70768a214610718578063d8fbe99414610745578063dd62ed3e14610765578063eb084fcf146107ab578063f2fde38b146107c057600080fd5b8063a9059cbb14610678578063b9a2de3a14610698578063c1d34b89146106b8578063cae9ca51146106d8578063d505accf146106f857600080fd5b806384b0196e116100f257806384b0196e146105de5780638da5cb5b1461060657806395d89b411461062e5780639979ef45146106435780639d024a7f1461065657600080fd5b8063715018a61461055c57806374e6c7301461057157806378bd7935146105915780637ecebe00146105be57600080fd5b80632ad71573116101b15780634000aea0116101755780634000aea0146103e9578063571a26a01461040957806361beb1d7146104e657806365a7ecb01461050657806370a082311461052657600080fd5b80632ad715731461036b578063313ce567146103815780633177029f1461039d578063339a6fc1146103bd5780633644e515146103d457600080fd5b80631389b117116101f85780631389b117146102cc57806318160ddd146102ec5780631c8e4c431461030b57806323b872dd1461033857806329cb924d1461035857600080fd5b806301ffc9a71461023557806306fdde031461026a578063095ea7b31461028c5780631296ee62146102ac57600080fd5b3661023057005b600080fd5b34801561024157600080fd5b5061025561025036600461281c565b6107e0565b60405190151581526020015b60405180910390f35b34801561027657600080fd5b5061027f610817565b604051610261919061287f565b34801561029857600080fd5b506102556102a73660046128a7565b6108a9565b3480156102b857600080fd5b506102556102c73660046128a7565b6108c1565b3480156102d857600080fd5b506102556102e73660046128d3565b6108e4565b3480156102f857600080fd5b506002545b604051908152602001610261565b34801561031757600080fd5b506102fd6103263660046128d3565b600e6020526000908152604090205481565b34801561034457600080fd5b506102556103533660046128ec565b61099b565b34801561036457600080fd5b50426102fd565b34801561037757600080fd5b506102fd600b5481565b34801561038d57600080fd5b5060405160128152602001610261565b3480156103a957600080fd5b506102556103b83660046128a7565b6109bf565b3480156103c957600080fd5b506103d26109db565b005b3480156103e057600080fd5b506102fd610a6d565b3480156103f557600080fd5b506102556104043660046129d0565b610a7c565b34801561041557600080fd5b506104866104243660046128d3565b600a60205260009081526040902080546001820154600283015460038401546004850154600586015460068701546007880154600889015460099099015497986001600160a01b03978816989688169795969495939492939091169160ff168a565b604080519a8b526001600160a01b03998a1660208c0152978916978a01979097526060890195909552608088019390935260a087019190915260c086015290921660e0840152610100830191909152151561012082015261014001610261565b3480156104f257600080fd5b506103d2610501366004612a29565b610ac9565b34801561051257600080fd5b506102fd6105213660046128d3565b610e16565b34801561053257600080fd5b506102fd610541366004612a64565b6001600160a01b031660009081526020819052604090205490565b34801561056857600080fd5b506103d2610e37565b34801561057d57600080fd5b506102fd61058c3660046128d3565b610e4b565b34801561059d57600080fd5b506105b16105ac3660046128d3565b610e5b565b6040516102619190612b1c565b3480156105ca57600080fd5b506102fd6105d9366004612a64565b610efa565b3480156105ea57600080fd5b506105f3610f18565b6040516102619796959493929190612b2b565b34801561061257600080fd5b506008546040516001600160a01b039091168152602001610261565b34801561063a57600080fd5b5061027f610f5e565b6103d26106513660046128d3565b610f6d565b34801561066257600080fd5b5061066b611161565b6040516102619190612bc1565b34801561068457600080fd5b506102556106933660046128a7565b61138d565b3480156106a457600080fd5b506103d26106b33660046128d3565b61139b565b3480156106c457600080fd5b506102556106d3366004612c04565b611687565b3480156106e457600080fd5b506102556106f33660046129d0565b6116c4565b34801561070457600080fd5b506103d2610713366004612c70565b61170b565b34801561072457600080fd5b506102fd6107333660046128d3565b600f6020526000908152604090205481565b34801561075157600080fd5b506102556107603660046128ec565b611845565b34801561077157600080fd5b506102fd610780366004612ce7565b6001600160a01b03918216600090815260016020908152604080832093909416825291909152205490565b3480156107b757600080fd5b5061066b61186a565b3480156107cc57600080fd5b506103d26107db366004612a64565b611bbf565b60006001600160e01b0319821663b0202a1160e01b148061081157506301ffc9a760e01b6001600160e01b03198316145b92915050565b60606003805461082690612d20565b80601f016020809104026020016040519081016040528092919081815260200182805461085290612d20565b801561089f5780601f106108745761010080835404028352916020019161089f565b820191906000526020600020905b81548152906001019060200180831161088257829003601f168201915b5050505050905090565b6000336108b7818585611bfa565b5060019392505050565b60006108dd838360405180602001604052806000815250610a7c565b9392505050565b6000818152600a602090815260408083208151610140810183528154815260018201546001600160a01b0390811694820185905260028301548116938201939093526003820154606082015260048201546080820152600582015460a0820152600682015460c0820152600782015490921660e083015260088101546101008301526009015460ff161515610120820152901580159061098857508060a001514210155b80156108dd575061012001511592915050565b6000336109a9858285611c0c565b6109b4858585611c85565b506001949350505050565b60006108dd8383604051806020016040528060008152506116c4565b600c545b8015610a6a576000600c6109f4600184612d70565b81548110610a0457610a04612d83565b90600052602060002001549050600a6000828152602001908152602001600020600501544210158015610a4957506000818152600a602052604090206009015460ff16155b15610a5757610a5781611ce4565b5080610a6281612d99565b9150506109df565b50565b6000610a77611de1565b905090565b6000610a88848461138d565b610abc5760405163118d81d760e11b81526001600160a01b0385166004820152602481018490526044015b60405180910390fd5b6108b73333868686611f0c565b610ad161205d565b60008211610b215760405162461bcd60e51b815260206004820152601a60248201527f5374617274696e67207072696365206d757374206265203e20300000000000006044820152606401610ab3565b60008111610b685760405162461bcd60e51b815260206004820152601460248201527304475726174696f6e206d757374206265203e20360641b6044820152606401610ab3565b6040516323b872dd60e01b81526001600160a01b038516906323b872dd90610b9890339030908890600401612db0565b600060405180830381600087803b158015610bb257600080fd5b505af1158015610bc6573d6000803e3d6000fd5b5050600b54915060009050610bdb8342612dd4565b9050604051806101400160405280838152602001336001600160a01b0316815260200160006001600160a01b03168152602001858152602001428152602001828152602001858152602001876001600160a01b0316815260200186815260200160001515815250600a60008481526020019081526020016000206000820151816000015560208201518160010160006101000a8154816001600160a01b0302191690836001600160a01b0316021790555060408201518160020160006101000a8154816001600160a01b0302191690836001600160a01b03160217905550606082015181600301556080820151816004015560a0820151816005015560c0820151816006015560e08201518160070160006101000a8154816001600160a01b0302191690836001600160a01b0316021790555061010082015181600801556101208201518160090160006101000a81548160ff021916908315150217905550905050600c80549050600e600084815260200190815260200160002081905550600c829080600181540180825580915050600190039060005260206000200160009091909190915055856001600160a01b0316336001600160a01b0316837fcaf0ae751fb2b122e8718bf7c0d4b7584d1418a853a4d0cdaba45418d3da138b88884287604051610de3949392919093845260208401929092526040830152606082015260800190565b60405180910390a46001600b6000828254610dfe9190612dd4565b9091555050600160095550610e109050565b50505050565b600c8181548110610e2657600080fd5b600091825260209091200154905081565b610e3f612087565b610e4960006120b4565b565b600d8181548110610e2657600080fd5b610e63612796565b506000908152600a60209081526040918290208251610140810184528154815260018201546001600160a01b039081169382019390935260028201548316938101939093526003810154606084015260048101546080840152600581015460a0840152600681015460c0840152600781015490911660e083015260088101546101008301526009015460ff16151561012082015290565b6001600160a01b038116600090815260076020526040812054610811565b600060608060008060006060610f2c612106565b610f34612133565b60408051600080825260208201909252600f60f81b9b939a50919850469750309650945092509050565b60606004805461082690612d20565b610f7561205d565b6000818152600a6020526040902060018101546001600160a01b0316610fd65760405162461bcd60e51b8152602060048201526016602482015275105d58dd1a5bdb88191bd95cc81b9bdd08195e1a5cdd60521b6044820152606401610ab3565b806005015442106110195760405162461bcd60e51b815260206004820152600d60248201526c105d58dd1a5bdb88195b991959609a1b6044820152606401610ab3565b8060030154341161105a5760405162461bcd60e51b815260206004820152600b60248201526a42696420746f6f206c6f7760a81b6044820152606401610ab3565b600981015460ff16156110a75760405162461bcd60e51b8152602060048201526015602482015274105d58dd1a5bdb88185b1c9958591e48195b991959605a1b6044820152606401610ab3565b60028101546001600160a01b0316156110fc57600281015460038201546040516001600160a01b039092169181156108fc0291906000818181858888f193505050501580156110fa573d6000803e3d6000fd5b505b6002810180546001600160a01b0319163390811790915534600383018190556040805185815260208101929092527f0e54eff26401bf69b81b26f60bd85ef47f5d85275c1d268d84f68d6897431c4791015b60405180910390a250610a6a6001600955565b60606000805b600c548110156111ee576000600c828154811061118657611186612d83565b6000918252602080832090910154808352600a90915260409091206009015490915060ff161580156111c857506000818152600a602052604090206005015442105b156111db57826111d781612de7565b9350505b50806111e681612de7565b915050611167565b5060008167ffffffffffffffff81111561120a5761120a61292d565b60405190808252806020026020018201604052801561124357816020015b611230612796565b8152602001906001900390816112285790505b5090506000805b600c54811015611384576000600c828154811061126957611269612d83565b6000918252602080832090910154808352600a90915260409091206009015490915060ff161580156112ab57506000818152600a602052604090206005015442105b15611371576000818152600a60209081526040918290208251610140810184528154815260018201546001600160a01b039081169382019390935260028201548316938101939093526003810154606084015260048101546080840152600581015460a0840152600681015460c0840152600781015490911660e083015260088101546101008301526009015460ff161515610120820152845185908590811061135757611357612d83565b6020026020010181905250828061136d90612de7565b9350505b508061137c81612de7565b91505061124a565b50909392505050565b6000336108b7818585611c85565b6113a361205d565b6000818152600a6020526040902060018101546001600160a01b03166114045760405162461bcd60e51b8152602060048201526016602482015275105d58dd1a5bdb88191bd95cc81b9bdd08195e1a5cdd60521b6044820152606401610ab3565b80600501544210156114505760405162461bcd60e51b8152602060048201526015602482015274105d58dd1a5bdb881b9bdd08195b991959081e595d605a1b6044820152606401610ab3565b600981015460ff161561149d5760405162461bcd60e51b8152602060048201526015602482015274105d58dd1a5bdb88185b1c9958591e48195b991959605a1b6044820152606401610ab3565b60098101805460ff191660011790556114b582611ce4565b60028101546001600160a01b0316156115d0576007810154600282015460088301546040516323b872dd60e01b81526001600160a01b03938416936323b872dd936115099330939290911691600401612db0565b600060405180830381600087803b15801561152357600080fd5b505af1158015611537573d6000803e3d6000fd5b505050600182015460038301546040516001600160a01b03909216925080156108fc02916000818181858888f1935050505015801561157a573d6000803e3d6000fd5b50600281015460038201546040805185815260208101929092526001600160a01b03909216917fd2aa34a4fdbbc6dff6a3e56f46e0f3ae2a31d7785ff3487aa5c95c642acea501910160405180910390a261167c565b6007810154600182015460088301546040516323b872dd60e01b81526001600160a01b03938416936323b872dd936116119330939290911691600401612db0565b600060405180830381600087803b15801561162b57600080fd5b505af115801561163f573d6000803e3d6000fd5b50506040805185815260006020820181905293507fd2aa34a4fdbbc6dff6a3e56f46e0f3ae2a31d7785ff3487aa5c95c642acea50192500161114e565b50610a6a6001600955565b600061169485858561099b565b6116b757848484604051635ab42af360e11b8152600401610ab393929190612db0565b6109b43386868686611f0c565b60006116d084846108a9565b6116ff57604051631439557160e21b81526001600160a01b038516600482015260248101849052604401610ab3565b6108b733858585612160565b8342111561172f5760405163313c898160e11b815260048101859052602401610ab3565b60007f6e71edae12b1b97f4d1f60370fef10105fa2faae0126114a169c64845d6126c988888861177c8c6001600160a01b0316600090815260076020526040902080546001810190915590565b6040805160208101969096526001600160a01b0394851690860152929091166060840152608083015260a082015260c0810186905260e00160405160208183030381529060405280519060200120905060006117d78261229e565b905060006117e7828787876122cb565b9050896001600160a01b0316816001600160a01b03161461182e576040516325c0072360e11b81526001600160a01b0380831660048301528b166024820152604401610ab3565b6118398a8a8a611bfa565b50505050505050505050565b600061186284848460405180602001604052806000815250611687565b949350505050565b60606000805b600c548110156118f6576000600c828154811061188f5761188f612d83565b6000918252602080832090910154808352600a90915260409091206009015490915060ff16806118d057506000818152600a60205260409020600501544210155b156118e357826118df81612de7565b9350505b50806118ee81612de7565b915050611870565b5060005b600d54811015611924578161190e81612de7565b925050808061191c90612de7565b9150506118fa565b5060008167ffffffffffffffff8111156119405761194061292d565b60405190808252806020026020018201604052801561197957816020015b611966612796565b81526020019060019003908161195e5790505b5090506000805b600c54811015611ab9576000600c828154811061199f5761199f612d83565b6000918252602080832090910154808352600a90915260409091206009015490915060ff16806119e057506000818152600a60205260409020600501544210155b15611aa6576000818152600a60209081526040918290208251610140810184528154815260018201546001600160a01b039081169382019390935260028201548316938101939093526003810154606084015260048101546080840152600581015460a0840152600681015460c0840152600781015490911660e083015260088101546101008301526009015460ff1615156101208201528451859085908110611a8c57611a8c612d83565b60200260200101819052508280611aa290612de7565b9350505b5080611ab181612de7565b915050611980565b5060005b600d5481101561138457600a6000600d8381548110611ade57611ade612d83565b6000918252602080832090910154835282810193909352604091820190208151610140810183528154815260018201546001600160a01b039081169482019490945260028201548416928101929092526003810154606083015260048101546080830152600581015460a0830152600681015460c0830152600781015490921660e0820152600882015461010082015260099091015460ff1615156101208201528351849084908110611b9357611b93612d83565b60200260200101819052508180611ba990612de7565b9250508080611bb790612de7565b915050611abd565b611bc7612087565b6001600160a01b038116611bf157604051631e4fbdf760e01b815260006004820152602401610ab3565b610a6a816120b4565b611c0783838360016122f9565b505050565b6001600160a01b03838116600090815260016020908152604080832093861683529290522054600019811015610e105781811015611c7657604051637dc7a0d960e11b81526001600160a01b03841660048201526024810182905260448101839052606401610ab3565b610e10848484840360006122f9565b6001600160a01b038316611caf57604051634b637e8f60e11b815260006004820152602401610ab3565b6001600160a01b038216611cd95760405163ec442f0560e01b815260006004820152602401610ab3565b611c078383836123ce565b6000818152600e6020526040812054600c54909190611d0590600190612d70565b9050808214611d64576000600c8281548110611d2357611d23612d83565b9060005260206000200154905080600c8481548110611d4457611d44612d83565b6000918252602080832090910192909255918252600e9052604090208290555b600c805480611d7557611d75612e00565b600082815260208082208301600019908101839055909201909255848252600e81526040808320839055600d8054600f9093529083208290556001820181559091527fd7b6990105719101dabeb77144f2a3385c8033acd3af97e9423a695e81ad1eb501929092555050565b6000306001600160a01b037f000000000000000000000000000000000000000000000000000000000000000016148015611e3a57507f000000000000000000000000000000000000000000000000000000000000000046145b15611e6457507f000000000000000000000000000000000000000000000000000000000000000090565b610a77604080517f8b73c3c69bb8fe3d512ecc4cf759cc79239f7b179b0ffacaa9a75d522b39400f60208201527f0000000000000000000000000000000000000000000000000000000000000000918101919091527f000000000000000000000000000000000000000000000000000000000000000060608201524660808201523060a082015260009060c00160405160208183030381529060405280519060200120905090565b826001600160a01b03163b600003611f42576040516322a5b36760e21b81526001600160a01b0384166004820152602401610ab3565b604051632229f29760e21b81526001600160a01b038416906388a7ca5c90611f74908890889087908790600401612e16565b6020604051808303816000875af1925050508015611faf575060408051601f3d908101601f19168201909252611fac91810190612e53565b60015b612018573d808015611fdd576040519150601f19603f3d011682016040523d82523d6000602084013e611fe2565b606091505b508051600003612010576040516322a5b36760e21b81526001600160a01b0385166004820152602401610ab3565b805160208201fd5b6001600160e01b03198116632229f29760e21b14612054576040516322a5b36760e21b81526001600160a01b0385166004820152602401610ab3565b505b5050505050565b60026009540361208057604051633ee5aeb560e01b815260040160405180910390fd5b6002600955565b6008546001600160a01b03163314610e495760405163118cdaa760e01b8152336004820152602401610ab3565b600880546001600160a01b038381166001600160a01b0319831681179093556040519116919082907f8be0079c531659141344cd1fd0a4f28419497f9722a3daafe3b4186f6b6457e090600090a35050565b6060610a777f000000000000000000000000000000000000000000000000000000000000000060056124f8565b6060610a777f000000000000000000000000000000000000000000000000000000000000000060066124f8565b826001600160a01b03163b6000036121965760405163deb6d3ed60e01b81526001600160a01b0384166004820152602401610ab3565b6040516307b04a2d60e41b81526001600160a01b03841690637b04a2d0906121c690879086908690600401612e70565b6020604051808303816000875af1925050508015612201575060408051601f3d908101601f191682019092526121fe91810190612e53565b60015b612262573d80801561222f576040519150601f19603f3d011682016040523d82523d6000602084013e612234565b606091505b5080516000036120105760405163deb6d3ed60e01b81526001600160a01b0385166004820152602401610ab3565b6001600160e01b031981166307b04a2d60e41b146120565760405163deb6d3ed60e01b81526001600160a01b0385166004820152602401610ab3565b60006108116122ab611de1565b8360405161190160f01b8152600281019290925260228201526042902090565b6000806000806122dd888888886125a3565b9250925092506122ed8282612672565b50909695505050505050565b6001600160a01b0384166123235760405163e602df0560e01b815260006004820152602401610ab3565b6001600160a01b03831661234d57604051634a1406b160e11b815260006004820152602401610ab3565b6001600160a01b0380851660009081526001602090815260408083209387168352929052208290558015610e1057826001600160a01b0316846001600160a01b03167f8c5be1e5ebec7d5bd14f71427d1e84f3dd0314c0f7b2291e5b200ac8c7c3b925846040516123c091815260200190565b60405180910390a350505050565b6001600160a01b0383166123f95780600260008282546123ee9190612dd4565b9091555061246b9050565b6001600160a01b0383166000908152602081905260409020548181101561244c5760405163391434e360e21b81526001600160a01b03851660048201526024810182905260448101839052606401610ab3565b6001600160a01b03841660009081526020819052604090209082900390555b6001600160a01b038216612487576002805482900390556124a6565b6001600160a01b03821660009081526020819052604090208054820190555b816001600160a01b0316836001600160a01b03167fddf252ad1be2c89b69c2b068fc378daa952ba7f163c4a11628f55a4df523b3ef836040516124eb91815260200190565b60405180910390a3505050565b606060ff83146125125761250b8361272f565b9050610811565b81805461251e90612d20565b80601f016020809104026020016040519081016040528092919081815260200182805461254a90612d20565b80156125975780601f1061256c57610100808354040283529160200191612597565b820191906000526020600020905b81548152906001019060200180831161257a57829003601f168201915b50505050509050610811565b600080807f7fffffffffffffffffffffffffffffff5d576e7357a4501ddfe92f46681b20a08411156125de5750600091506003905082612668565b604080516000808252602082018084528a905260ff891692820192909252606081018790526080810186905260019060a0016020604051602081039080840390855afa158015612632573d6000803e3d6000fd5b5050604051601f1901519150506001600160a01b03811661265e57506000925060019150829050612668565b9250600091508190505b9450945094915050565b600082600381111561268657612686612ea0565b0361268f575050565b60018260038111156126a3576126a3612ea0565b036126c15760405163f645eedf60e01b815260040160405180910390fd5b60028260038111156126d5576126d5612ea0565b036126f65760405163fce698f760e01b815260048101829052602401610ab3565b600382600381111561270a5761270a612ea0565b0361272b576040516335e2f38360e21b815260048101829052602401610ab3565b5050565b6060600061273c8361276e565b604080516020808252818301909252919250600091906020820181803683375050509182525060208101929092525090565b600060ff8216601f81111561081157604051632cd44ac360e21b815260040160405180910390fd5b6040518061014001604052806000815260200160006001600160a01b0316815260200160006001600160a01b031681526020016000815260200160008152602001600081526020016000815260200160006001600160a01b03168152602001600081526020016000151581525090565b6001600160e01b031981168114610a6a57600080fd5b60006020828403121561282e57600080fd5b81356108dd81612806565b6000815180845260005b8181101561285f57602081850181015186830182015201612843565b506000602082860101526020601f19601f83011685010191505092915050565b6020815260006108dd6020830184612839565b6001600160a01b0381168114610a6a57600080fd5b600080604083850312156128ba57600080fd5b82356128c581612892565b946020939093013593505050565b6000602082840312156128e557600080fd5b5035919050565b60008060006060848603121561290157600080fd5b833561290c81612892565b9250602084013561291c81612892565b929592945050506040919091013590565b634e487b7160e01b600052604160045260246000fd5b600082601f83011261295457600080fd5b813567ffffffffffffffff8082111561296f5761296f61292d565b604051601f8301601f19908116603f011681019082821181831017156129975761299761292d565b816040528381528660208588010111156129b057600080fd5b836020870160208301376000602085830101528094505050505092915050565b6000806000606084860312156129e557600080fd5b83356129f081612892565b925060208401359150604084013567ffffffffffffffff811115612a1357600080fd5b612a1f86828701612943565b9150509250925092565b60008060008060808587031215612a3f57600080fd5b8435612a4a81612892565b966020860135965060408601359560600135945092505050565b600060208284031215612a7657600080fd5b81356108dd81612892565b805182526020810151612a9f60208401826001600160a01b03169052565b506040810151612aba60408401826001600160a01b03169052565b50606081015160608301526080810151608083015260a081015160a083015260c081015160c083015260e0810151612afd60e08401826001600160a01b03169052565b5061010081810151908301526101208082015180151582850152610e10565b61014081016108118284612a81565b60ff60f81b881681526000602060e081840152612b4b60e084018a612839565b8381036040850152612b5d818a612839565b606085018990526001600160a01b038816608086015260a0850187905284810360c0860152855180825283870192509083019060005b81811015612baf57835183529284019291840191600101612b93565b50909c9b505050505050505050505050565b6020808252825182820181905260009190848201906040850190845b818110156122ed57612bf0838551612a81565b928401926101409290920191600101612bdd565b60008060008060808587031215612c1a57600080fd5b8435612c2581612892565b93506020850135612c3581612892565b925060408501359150606085013567ffffffffffffffff811115612c5857600080fd5b612c6487828801612943565b91505092959194509250565b600080600080600080600060e0888a031215612c8b57600080fd5b8735612c9681612892565b96506020880135612ca681612892565b95506040880135945060608801359350608088013560ff81168114612cca57600080fd5b9699959850939692959460a0840135945060c09093013592915050565b60008060408385031215612cfa57600080fd5b8235612d0581612892565b91506020830135612d1581612892565b809150509250929050565b600181811c90821680612d3457607f821691505b602082108103612d5457634e487b7160e01b600052602260045260246000fd5b50919050565b634e487b7160e01b600052601160045260246000fd5b8181038181111561081157610811612d5a565b634e487b7160e01b600052603260045260246000fd5b600081612da857612da8612d5a565b506000190190565b6001600160a01b039384168152919092166020820152604081019190915260600190565b8082018082111561081157610811612d5a565b600060018201612df957612df9612d5a565b5060010190565b634e487b7160e01b600052603160045260246000fd5b6001600160a01b0385811682528416602082015260408101839052608060608201819052600090612e4990830184612839565b9695505050505050565b600060208284031215612e6557600080fd5b81516108dd81612806565b60018060a01b0384168152826020820152606060408201526000612e976060830184612839565b95945050505050565b634e487b7160e01b600052602160045260246000fdfea26469706673582212204ba6c7d7e5d3c0d9828f3bf248f2b378bcd3a66643166a951b3db9b563c0e8b564736f6c63430008140033",
  "devdoc": {
    "errors": {
      "ECDSAInvalidSignature()": [
        {
          "details": "The signature derives the `address(0)`."
        }
      ],
      "ECDSAInvalidSignatureLength(uint256)": [
        {
          "details": "The signature has an invalid length."
        }
      ],
      "ECDSAInvalidSignatureS(bytes32)": [
        {
          "details": "The signature has an S value that is in the upper half order."
        }
      ],
      "ERC1363ApproveFailed(address,uint256)": [
        {
          "details": "Indicates a failure within the {approve} part of a approveAndCall operation.",
          "params": {
            "spender": "Address which will spend the funds.",
            "value": "Amount of tokens to be spent."
          }
        }
      ],
      "ERC1363InvalidReceiver(address)": [
        {
          "details": "Indicates a failure with the token `receiver`. Used in transfers.",
          "params": {
            "receiver": "Address to which tokens are being transferred."
          }
        }
      ],
      "ERC1363InvalidSpender(address)": [
        {
          "details": "Indicates a failure with the token `spender`. Used in approvals.",
          "params": {
            "spender": "Address that may be allowed to operate on tokens without being their owner."
          }
        }
      ],
      "ERC1363TransferFailed(address,uint256)": [
        {
          "details": "Indicates a failure within the {transfer} part of a transferAndCall operation.",
          "params": {
            "receiver": "Address to which tokens are being transferred.",
            "value": "Amount of tokens to be transferred."
          }
        }
      ],
      "ERC1363TransferFromFailed(address,address,uint256)": [
        {
          "details": "Indicates a failure within the {transferFrom} part of a transferFromAndCall operation.",
          "params": {
            "receiver": "Address to which tokens are being transferred.",
            "sender": "Address from which to send tokens.",
            "value": "Amount of tokens to be transferred."
          }
        }
      ],
      "ERC20InsufficientAllowance(address,uint256,uint256)": [
        {
          "details": "Indicates a failure with the `spender`s `allowance`. Used in transfers.",
          "params": {
            "allowance": "Amount of tokens a `spender` is allowed to operate with.",
            "needed": "Minimum amount required to perform a transfer.",
            "spender": "Address that may be allowed to operate on tokens without being their owner."
          }
        }
      ],
      "ERC20InsufficientBalance(address,uint256,uint256)": [
        {
          "details": "Indicates an error related to the current `balance` of a `sender`. Used in transfers.",
          "params": {
            "balance": "Current balance for the interacting account.",
            "needed": "Minimum amount required to perform a transfer.",
            "sender": "Address whose tokens are being transferred."
          }
        }
      ],
      "ERC20InvalidApprover(address)": [
        {
          "details": "Indicates a failure with the `approver` of a token to be approved. Used in approvals.",
          "params": {
            "approver": "Address initiating an approval operation."
          }
        }
      ],
      "ERC20InvalidReceiver(address)": [
        {
          "details": "Indicates a failure with the token `receiver`. Used in transfers.",
          "params": {
            "receiver": "Address to which tokens are being transferred."
          }
        }
      ],
      "ERC20InvalidSender(address)": [
        {
          "details": "Indicates a failure with the token `sender`. Used in transfers.",
          "params": {
            "sender": "Address whose tokens are being transferred."
          }
        }
      ],
      "ERC20InvalidSpender(address)": [
        {
          "details": "Indicates a failure with the `spender` to be approved. Used in approvals.",
          "params": {
            "spender": "Address that may be allowed to operate on tokens without being their owner."
          }
        }
      ],
      "ERC2612ExpiredSignature(uint256)": [
        {
          "details": "Permit deadline has expired."
        }
      ],
      "ERC2612InvalidSigner(address,address)": [
        {
          "details": "Mismatched signature."
        }
      ],
      "InvalidAccountNonce(address,uint256)": [
        {
          "details": "The nonce used for an `account` is not the expected current nonce."
        }
      ],
      "OwnableInvalidOwner(address)": [
        {
          "details": "The owner is not a valid owner account. (eg. `address(0)`)"
        }
      ],
      "OwnableUnauthorizedAccount(address)": [
        {
          "details": "The caller account is not authorized to perform an operation."
        }
      ],
      "ReentrancyGuardReentrantCall()": [
        {
          "details": "Unauthorized reentrant call."
        }
      ]
    },
    "events": {
      "Approval(address,address,uint256)": {
        "details": "Emitted when the allowance of a `spender` for an `owner` is set by a call to {approve}. `value` is the new allowance."
      },
      "EIP712DomainChanged()": {
        "details": "MAY be emitted to signal that the domain could have changed."
      },
      "Transfer(address,address,uint256)": {
        "details": "Emitted when `value` tokens are moved from one account (`from`) to another (`to`). Note that `value` may be zero."
      }
    },
    "kind": "dev",
    "methods": {
      "DOMAIN_SEPARATOR()": {
        "details": "Returns the domain separator used in the encoding of the signature for {permit}, as defined by {EIP712}."
      },
      "allowance(address,address)": {
        "details": "Returns the remaining number of tokens that `spender` will be allowed to spend on behalf of `owner` through {transferFrom}. This is zero by default. This value changes when {approve} or {transferFrom} are called."
      },
      "approve(address,uint256)": {
        "details": "See {IERC20-approve}. NOTE: If `value` is the maximum `uint256`, the allowance is not updated on `transferFrom`. This is semantically equivalent to an infinite approval. Requirements: - `spender` cannot be the zero address."
      },
      "approveAndCall(address,uint256)": {
        "details": "Sets a `value` amount of tokens as the allowance of `spender` over the caller's tokens and then calls {IERC1363Spender-onApprovalReceived} on `spender`. Returns a flag that indicates if the call succeeded. Requirements: - The target has code (i.e. is a contract). - The target `spender` must implement the {IERC1363Spender} interface. - The target must return the {IERC1363Spender-onApprovalReceived} selector to accept the approval. - The internal {approve} must succeed (returned `true`)."
      },
      "approveAndCall(address,uint256,bytes)": {
        "details": "Variant of {approveAndCall} that accepts an additional `data` parameter with no specified format."
      },
      "balanceOf(address)": {
        "details": "Returns the value of tokens owned by `account`."
      },
      "decimals()": {
        "details": "Returns the number of decimals used to get its user representation. For example, if `decimals` equals `2`, a balance of `505` tokens should be displayed to a user as `5.05` (`505 / 10 ** 2`). Tokens usually opt for a value of 18, imitating the relationship between Ether and Wei. This is the default value returned by this function, unless it's overridden. NOTE: This information is only used for _display_ purposes: it in no way affects any of the arithmetic of the contract, including {IERC20-balanceOf} and {IERC20-transfer}."
      },
      "eip712Domain()": {
        "details": "returns the fields and values that describe the domain separator used by this contract for EIP-712 signature."
      },
      "name()": {
        "details": "Returns the name of the token."
      },
      "nonces(address)": {
        "details": "Returns the current nonce for `owner`. This value must be included whenever a signature is generated for {permit}. Every successful call to {permit} increases ``owner``'s nonce by one. This prevents a signature from being used multiple times."
      },
      "owner()": {
        "details": "Returns the address of the current owner."
      },
      "permit(address,address,uint256,uint256,uint8,bytes32,bytes32)": {
        "details": "Sets `value` as the allowance of `spender` over ``owner``'s tokens, given ``owner``'s signed approval. IMPORTANT: The same issues {IERC20-approve} has related to transaction ordering also apply here. Emits an {Approval} event. Requirements: - `spender` cannot be the zero address. - `deadline` must be a timestamp in the future. - `v`, `r` and `s` must be a valid `secp256k1` signature from `owner` over the EIP712-formatted function arguments. - the signature must use ``owner``'s current nonce (see {nonces}). For more information on the signature format, see the https://eips.ethereum.org/EIPS/eip-2612#specification[relevant EIP section]. CAUTION: See Security Considerations above."
      },
      "renounceOwnership()": {
        "details": "Leaves the contract without owner. It will not be possible to call `onlyOwner` functions. Can only be called by the current owner. NOTE: Renouncing ownership will leave the contract without an owner, thereby disabling any functionality that is only available to the owner."
      },
      "supportsInterface(bytes4)": {
        "details": "Returns true if this contract implements the interface defined by `interfaceId`. See the corresponding https://eips.ethereum.org/EIPS/eip-165#how-interfaces-are-identified[ERC section] to learn more about how these ids are created. This function call must use less than 30 000 gas."
      },
      "symbol()": {
        "details": "Returns the symbol of the token, usually a shorter version of the name."
      },
      "totalSupply()": {
        "details": "Returns the value of tokens in existence."
      },
      "transfer(address,uint256)": {
        "details": "See {IERC20-transfer}. Requirements: - `to` cannot be the zero address. - the caller must have a balance of at least `value`."
      },
      "transferAndCall(address,uint256)": {
        "details": "Moves a `value` amount of tokens from the caller's account to `to` and then calls {IERC1363Receiver-onTransferReceived} on `to`. Returns a flag that indicates if the call succeeded. Requirements: - The target has code (i.e. is a contract). - The target `to` must implement the {IERC1363Receiver} interface. - The target must return the {IERC1363Receiver-onTransferReceived} selector to accept the transfer. - The internal {transfer} must succeed (returned `true`)."
      },
      "transferAndCall(address,uint256,bytes)": {
        "details": "Variant of {transferAndCall} that accepts an additional `data` parameter with no specified format."
      },
      "transferFrom(address,address,uint256)": {
        "details": "See {IERC20-transferFrom}. Skips emitting an {Approval} event indicating an allowance update. This is not required by the ERC. See {xref-ERC20-_approve-address-address-uint256-bool-}[_approve]. NOTE: Does not update the allowance if the current allowance is the maximum `uint256`. Requirements: - `from` and `to` cannot be the zero address. - `from` must have a balance of at least `value`. - the caller must have allowance for ``from``'s tokens of at least `value`."
      },
      "transferFromAndCall(address,address,uint256)": {
        "details": "Moves a `value` amount of tokens from `from` to `to` using the allowance mechanism and then calls {IERC1363Receiver-onTransferReceived} on `to`. Returns a flag that indicates if the call succeeded. Requirements: - The target has code (i.e. is a contract). - The target `to` must implement the {IERC1363Receiver} interface. - The target must return the {IERC1363Receiver-onTransferReceived} selector to accept the transfer. - The internal {transferFrom} must succeed (returned `true`)."
      },
      "transferFromAndCall(address,address,uint256,bytes)": {
        "details": "Variant of {transferFromAndCall} that accepts an additional `data` parameter with no specified format."
      },
      "transferOwnership(address)": {
        "details": "Transfers ownership of the contract to a new account (`newOwner`). Can only be called by the current owner."
      }
    },
    "version": 1
  },
  "userdoc": {
    "kind": "user",
    "methods": {},
    "version": 1
  },
  "storageLayout": {
    "storage": [
      {
        "astId": 456,
        "contract": "contracts/NftAuctions.sol:NftAuctions",
        "label": "_balances",
        "offset": 0,
        "slot": "0",
        "type": "t_mapping(t_address,t_uint256)"
      },
      {
        "astId": 462,
        "contract": "contracts/NftAuctions.sol:NftAuctions",
        "label": "_allowances",
        "offset": 0,
        "slot": "1",
        "type": "t_mapping(t_address,t_mapping(t_address,t_uint256))"
      },
      {
        "astId": 464,
        "contract": "contracts/NftAuctions.sol:NftAuctions",
        "label": "_totalSupply",
        "offset": 0,
        "slot": "2",
        "type": "t_uint256"
      },
      {
        "astId": 466,
        "contract": "contracts/NftAuctions.sol:NftAuctions",
        "label": "_name",
        "offset": 0,
        "slot": "3",
        "type": "t_string_storage"
      },
      {
        "astId": 468,
        "contract": "contracts/NftAuctions.sol:NftAuctions",
        "label": "_symbol",
        "offset": 0,
        "slot": "4",
        "type": "t_string_storage"
      },
      {
        "astId": 4097,
        "contract": "contracts/NftAuctions.sol:NftAuctions",
        "label": "_nameFallback",
        "offset": 0,
        "slot": "5",
        "type": "t_string_storage"
      },
      {
        "astId": 4099,
        "contract": "contracts/NftAuctions.sol:NftAuctions",
        "label": "_versionFallback",
        "offset": 0,
        "slot": "6",
        "type": "t_string_storage"
      },
      {
        "astId": 1794,
        "contract": "contracts/NftAuctions.sol:NftAuctions",
        "label": "_nonces",
        "offset": 0,
        "slot": "7",
        "type": "t_mapping(t_address,t_uint256)"
      },
      {
        "astId": 8,
        "contract": "contracts/NftAuctions.sol:NftAuctions",
        "label": "_owner",
        "offset": 0,
        "slot": "8",
        "type": "t_address"
      },
      {
        "astId": 1911,
        "contract": "contracts/NftAuctions.sol:NftAuctions",
        "label": "_status",
        "offset": 0,
        "slot": "9",
        "type": "t_uint256"
      },
      {
        "astId": 7990,
        "contract": "contracts/NftAuctions.sol:NftAuctions",
        "label": "auctions",
        "offset": 0,
        "slot": "10",
        "type": "t_mapping(t_uint256,t_struct(Auction)7985_storage)"
      },
      {
        "astId": 7992,
        "contract": "contracts/NftAuctions.sol:NftAuctions",
        "label": "auctionCount",
        "offset": 0,
        "slot": "11",
        "type": "t_uint256"
      },
      {
        "astId": 7995,
        "contract": "contracts/NftAuctions.sol:NftAuctions",
        "label": "ongoingAuctionIds",
        "offset": 0,
        "slot": "12",
        "type": "t_array(t_uint256)dyn_storage"
      },
      {
        "astId": 7998,
        "contract": "contracts/NftAuctions.sol:NftAuctions",
        "label": "expiredAuctionIds",
        "offset": 0,
        "slot": "13",
        "type": "t_array(t_uint256)dyn_storage"
      },
      {
        "astId": 8002,
        "contract": "contracts/NftAuctions.sol:NftAuctions",
        "label": "ongoingAuctionIndex",
        "offset": 0,
        "slot": "14",
        "type": "t_mapping(t_uint256,t_uint256)"
      },
      {
        "astId": 8006,
        "contract": "contracts/NftAuctions.sol:NftAuctions",
        "label": "expiredAuctionIndex",
        "offset": 0,
        "slot": "15",
        "type": "t_mapping(t_uint256,t_uint256)"
      }
    ],
    "types": {
      "t_address": {
        "encoding": "inplace",
        "label": "address",
        "numberOfBytes": "20"
      },
      "t_array(t_uint256)dyn_storage": {
        "base": "t_uint256",
        "encoding": "dynamic_array",
        "label": "uint256[]",
        "numberOfBytes": "32"
      },
      "t_bool": {
        "encoding": "inplace",
        "label": "bool",
        "numberOfBytes": "1"
      },
      "t_contract(IERC721)1750": {
        "encoding": "inplace",
        "label": "contract IERC721",
        "numberOfBytes": "20"
      },
      "t_mapping(t_address,t_mapping(t_address,t_uint256))": {
        "encoding": "mapping",
        "key": "t_address",
        "label": "mapping(address => mapping(address => uint256))",
        "numberOfBytes": "32",
        "value": "t_mapping(t_address,t_uint256)"
      },
      "t_mapping(t_address,t_uint256)": {
        "encoding": "mapping",
        "key": "t_address",
        "label": "mapping(address => uint256)",
        "numberOfBytes": "32",
        "value": "t_uint256"
      },
      "t_mapping(t_uint256,t_struct(Auction)7985_storage)": {
        "encoding": "mapping",
        "key": "t_uint256",
        "label": "mapping(uint256 => struct NftAuctions.Auction)",
        "numberOfBytes": "32",
        "value": "t_struct(Auction)7985_storage"
      },
      "t_mapping(t_uint256,t_uint256)": {
        "encoding": "mapping",
        "key": "t_uint256",
        "label": "mapping(uint256 => uint256)",
        "numberOfBytes": "32",
        "value": "t_uint256"
      },
      "t_string_storage": {
        "encoding": "bytes",
        "label": "string",
        "numberOfBytes": "32"
      },
      "t_struct(Auction)7985_storage": {
        "encoding": "inplace",
        "label": "struct NftAuctions.Auction",
        "members": [
          {
            "astId": 7965,
            "contract": "contracts/NftAuctions.sol:NftAuctions",
            "label": "auctionId",
            "offset": 0,
            "slot": "0",
            "type": "t_uint256"
          },
          {
            "astId": 7967,
            "contract": "contracts/NftAuctions.sol:NftAuctions",
            "label": "seller",
            "offset": 0,
            "slot": "1",
            "type": "t_address"
          },
          {
            "astId": 7969,
            "contract": "contracts/NftAuctions.sol:NftAuctions",
            "label": "highestBidder",
            "offset": 0,
            "slot": "2",
            "type": "t_address"
          },
          {
            "astId": 7971,
            "contract": "contracts/NftAuctions.sol:NftAuctions",
            "label": "highestBid",
            "offset": 0,
            "slot": "3",
            "type": "t_uint256"
          },
          {
            "astId": 7973,
            "contract": "contracts/NftAuctions.sol:NftAuctions",
            "label": "startTime",
            "offset": 0,
            "slot": "4",
            "type": "t_uint256"
          },
          {
            "astId": 7975,
            "contract": "contracts/NftAuctions.sol:NftAuctions",
            "label": "endTime",
            "offset": 0,
            "slot": "5",
            "type": "t_uint256"
          },
          {
            "astId": 7977,
            "contract": "contracts/NftAuctions.sol:NftAuctions",
            "label": "startingPrice",
            "offset": 0,
            "slot": "6",
            "type": "t_uint256"
          },
          {
            "astId": 7980,
            "contract": "contracts/NftAuctions.sol:NftAuctions",
            "label": "nftContract",
            "offset": 0,
            "slot": "7",
            "type": "t_contract(IERC721)1750"
          },
          {
            "astId": 7982,
            "contract": "contracts/NftAuctions.sol:NftAuctions",
            "label": "tokenId",
            "offset": 0,
            "slot": "8",
            "type": "t_uint256"
          },
          {
            "astId": 7984,
            "contract": "contracts/NftAuctions.sol:NftAuctions",
            "label": "ended",
            "offset": 0,
            "slot": "9",
            "type": "t_bool"
          }
        ],
        "numberOfBytes": "320"
      },
      "t_uint256": {
        "encoding": "inplace",
        "label": "uint256",
        "numberOfBytes": "32"
      }
    }
  }
}